:100000000C945D000C9432020C940B020C9485004D
:100010000C9485000C9485000C9485000C9485004C
:100020000C9485000C9485000C9485000C9485003C
:100030000C9485000C9485000C9485000C9485002C
:100040000C94C1010C9485000C947F020C9459020D
:100050000C9485000C9485000C9485000C9485000C
:100060000C9485000C9485000000000024002700FB
:100070002A0000000000250028002B0004040404CE
:100080000404040402020202020203030303030342
:10009000010204081020408001020408102001021F
:1000A00004081020000000080002010000030407FB
:1000B0000000000000000000200411241FBECFEF4C
:1000C000D8E0DEBFCDBF11E0A0E0B1E0EAEAF8E0A1
:1000D00002C005900D92AA31B107D9F721E0AAE13B
:1000E000B1E001C01D92A13CB207E1F710E0CDE5FF
:1000F000D0E004C02197FE010E944D04CC35D10709
:10010000C9F70E94B1020C9453040C9400003FB74D
:10011000F8948091BD019091BE01A091BF01B09172
:10012000C00126B5A89B05C02F3F19F00196A11D5F
:10013000B11D3FBFBA2FA92F982F8827BC01CD0131
:10014000620F711D811D911D42E0660F771F881F90
:10015000991F4A95D1F708950895AF92BF92CF9213
:10016000DF92EF92FF920F931F93CF93DF936C0177
:100170007B018B01040F151FEB015E01AE18BF0858
:10018000C017D10759F06991D601ED91FC9101900A
:10019000F081E02DC6010995892B79F7C501DF9122
:1001A000CF911F910F91FF90EF90DF90CF90BF9074
:1001B000AF9008958091B70191E089278093B701AE
:1001C0000895FC01538D448D252F30E0842F90E05D
:1001D000821B930B541710F0CF9608950197089542
:1001E000FC01918D828D981761F0A28DAE0FBF2F0B
:1001F000B11D5D968C91928D9F5F9F73928F90E061
:1002000008958FEF9FEF0895FC01918D828D9817CF
:1002100031F0828DE80FF11D858D90E008958FEF0C
:100220009FEF0895FC01918D228D892F90E0805CD5
:100230009F4F821B91098F73992708958AE191E05E
:100240000E94120121E0892B09F420E0822F0895F9
:1002500080E090E0892B29F00E941E0181110C940E
:1002600000000895FC01A48DA80FB92FB11DA35A59
:10027000BF4F2C91848D90E001968F739927848FC6
:10028000A689B7892C93A089B1898C9183708064E9
:100290008C93938D848D981306C00288F389E02D8A
:1002A00080818F7D80830895EF92FF920F931F933B
:1002B000CF93DF93EC0181E0888F9B8D8C8D981319
:1002C0001AC0E889F989808185FF15C09FB7F89425
:1002D000EE89FF896083E889F98980818370806471
:1002E00080839FBF81E090E0DF91CF911F910F91BC
:1002F000FF90EF900895F62E0B8D10E00F5F1F4FCB
:100300000F731127E02E8C8D8E110CC00FB607FCD9
:10031000FACFE889F989808185FFF5CFCE010E9467
:100320003201F1CFEB8DEC0FFD2FF11DE35AFF4FA2
:10033000F0829FB7F8940B8FEA89FB8980818062F5
:10034000CFCFCF93DF93EC01888D8823B9F0AA89B2
:10035000BB89E889F9898C9185FD03C0808186FD80
:100360000DC00FB607FCF7CF8C9185FFF2CF8081CF
:1003700085FFEDCFCE010E943201E9CFDF91CF9111
:1003800008951F920F920FB60F9211242F933F934F
:100390008F939F93AF93BF938091B9019091BA01CE
:1003A000A091BB01B091BC013091B80123E0230FB3
:1003B0002D3758F50196A11DB11D2093B8018093EA
:1003C000B9019093BA01A093BB01B093BC01809195
:1003D000BD019091BE01A091BF01B091C0010196F5
:1003E000A11DB11D8093BD019093BE01A093BF01DB
:1003F000B093C001BF91AF919F918F913F912F9189
:100400000F900FBE0F901F90189526E8230F0296AD
:10041000A11DB11DD2CF1F920F920FB60F921124C2
:100420002F933F934F935F936F937F938F939F93FC
:10043000AF93BF93EF93FF93E0910201F09103011B
:100440000995FF91EF91BF91AF919F918F917F910E
:100450006F915F914F913F912F910F900FBE0F9031
:100460001F9018951F920F920FB60F9211242F9381
:100470003F934F935F936F937F938F939F93AF932C
:10048000BF93EF93FF93E0910001F0910101099573
:10049000FF91EF91BF91AF919F918F917F916F915C
:1004A0005F914F913F912F910F900FBE0F901F9032
:1004B00018951F920F920FB60F9211242F933F930E
:1004C0004F935F936F937F938F939F93AF93BF935C
:1004D000EF93FF938AE191E00E943201FF91EF9147
:1004E000BF91AF919F918F917F916F915F914F914C
:1004F0003F912F910F900FBE0F901F9018951F9254
:100500000F920FB60F9211242F938F939F93EF9317
:10051000FF93E0912A01F0912B018081E09130015D
:10052000F091310182FD1BC09081809133018F5F7A
:100530008F7320913401821741F0E0913301F0E094
:10054000E65EFE4F958F80933301FF91EF919F916F
:100550008F912F910F900FBE0F901F901895808153
:10056000F4CFCF93DF93CDB7DEB7A1970FB6F89452
:10057000DEBF0FBECDBF789484B5826084BD84B5E4
:10058000816084BD85B5826085BD85B5816085BD8E
:1005900080916E00816080936E0010928100809146
:1005A00081008260809381008091810081608093CE
:1005B0008100809180008160809380008091B100F3
:1005C00084608093B1008091B00081608093B0001E
:1005D00080917A00846080937A0080917A008260B2
:1005E00080937A0080917A00816080937A00809174
:1005F0007A00806880937A001092C100E0912A010D
:10060000F0912B0182E08083E0912601F091270197
:100610001082E0912801F09129018FEC80831092E3
:100620003201E0912E01F0912F0186E08083E0916C
:100630002C01F0912D01808180618083E0912C015B
:10064000F0912D01808188608083E0912C01F091F0
:100650002D01808180688083E0912C01F0912D0133
:1006600080818F7D8083E2E9F0E02491EEE7F0E085
:1006700084918823C9F090E0880F991FFC01E85904
:10068000FF4F45915491FC01EE58FF4FA591B49155
:100690009FB7F894FA013081822F8095832380835D
:1006A000EC91E22BEC939FBF46E9242E40E0342EE0
:1006B000F101249152E8E52E50E0F52EF7018491E6
:1006C000882399F090E0880F991FFC01E859FF4FAB
:1006D000A591B491FC01EE58FF4F859194918FB78D
:1006E000F8949C91292B2C938FBF8AED90E09093E6
:1006F000010180930001809169008360809369000B
:10070000E89A8E01005E1F4F20E0C22E20E0D22E1C
:100710008091B70119A2805D88A3F80101900020A3
:10072000E9F73197AF01401B510BB8018AE191E025
:100730000E94AD0042E050E066E171E08AE191E0A4
:100740000E94AD00EAEAF0E09491F1018491F70192
:100750003491332301F12091B701992359F093305B
:1007600009F454C008F047C0913009F455C09230E4
:1007700009F456C0E32FF0E0EE0FFF1FEE58FF4FD5
:10078000A591B4919FB7F894211157C02C918095F1
:1007900082238C939FBF0E9487002B013C018AE03B
:1007A000882E912CA12CB12C0E9487006419750908
:1007B00086099709683E734081059105A8F3F1E029
:1007C0008F1A9108A108B10828EE420E23E0521EAC
:1007D000611C711C81149104A104B10429F7C11496
:1007E000D10409F495CF0E941E01882309F490CF0B
:1007F0000E9400008DCF9730B1F09830D1F0943046
:1008000009F0B8CF909180009F7D03C09091800047
:100810009F7790938000AECF94B59F7794BDAACF79
:1008200094B59F7DFBCF9091B0009F779093B000DF
:10083000A1CF9091B0009F7DF9CF2C91822BA9CFB1
:10084000EAE1F1E01382128288EE93E0A0E0B0E0EA
:1008500084839583A683B78388E091E09183808326
:1008600085EC90E09587848784EC90E09787868775
:1008700080EC90E0918B808B81EC90E0938B828B6D
:1008800082EC90E0958B848B86EC90E0978B868B46
:10089000118E128E138E148E0895EE0FFF1F059089
:0A08A000F491E02D0994F894FFCFC5
:1008AA00AC00AC00000000005401AD00E100A10161
:0A08BA001201F00004010D0A000015
:00000001FF
