:100000000C9462000C948A000C948A000C948A0070
:100010000C948A000C948A000C948A000C948A0038
:100020000C948A000C948A000C948A000C945F0350
:100030000C948A000C948A000C948A000C948A0018
:100040000C94BD020C948A000C942D030C940703AD
:100050000C948A000C948A000C948A000C948A00F8
:100060000C948A000C948A000000000023002600F3
:10007000290000000000240027002A0000000000E2
:10008000250028002B0004040404040404040202D4
:100090000202020203030303030301020408102007
:1000A0004080010204081020010204081020000012
:1000B0000008000201000003040700000000000027
:1000C0000000650411241FBECFEFD8E0DEBFCDBF16
:1000D00011E0A0E0B1E0EAE0F0E102C005900D928D
:1000E000A032B107D9F721E0A0E2B1E001C01D9232
:1000F000A13FB207E1F710E0C2E6D0E004C02197CB
:10010000FE010E94F807C136D107C9F70E94C30457
:100110000C9403080C940000CF92DF92EF92FF92B0
:10012000DC01A03282E0B8070CF03EC0B7FD06C08B
:10013000A53BB1052CF0A4EBB0E002C0A0E0B0E01C
:100140008091EF0128E830E06901C81AD10887FDE5
:10015000D394CC0CDD1CCC0CDD1C0D2C000CEE085B
:10016000FF088091F00128E532E0281B310987FD66
:100170003395220F331F220F331FA901330F660B54
:10018000770B9A01AB012C193D094E095F090E94BA
:10019000820624EB30E040E050E00E945806C20E98
:1001A000D31EE41EF51ED6019091EE019C3098F509
:1001B0008091EF0148E850E0481B510987FD5395B5
:1001C000440F551F440F551FA417B5078CF080919D
:1001D000F00128E532E0281B310987FD3395220F15
:1001E000331F220F331FAD012A173B070CF4A9015F
:1001F00042505109440F551F2FB7F894892F90E0B2
:10020000FC01EE0FFF1F8E0F9F1FFC01E753FE4FF7
:10021000528341832FBFFF90EF90DF90CF900895DE
:1002200090E0FC01E255FF4F2491FC01E656FF4FA0
:100230003491FC01EA57FF4FE491EE2309F43CC0EE
:10024000222339F1233091F038F42130A9F0223003
:1002500001F584B58F7D12C0273091F02830A1F0D0
:100260002430B9F4809180008F7D03C0809180009C
:100270008F77809380000DC084B58F7784BD09C0CF
:100280008091B0008F7703C08091B0008F7D809304
:10029000B000F0E0EE0FFF1FE458FF4FA591B491BE
:1002A0009FB7F894611104C08C913095382302C037
:1002B000EC913E2B3C939FBF0895CF93DF9390E04A
:1002C000FC01E656FF4F2491FC01EA57FF4F849151
:1002D000882361F190E0880F991FFC01EE58FF4FD1
:1002E000C591D491FC01E458FF4FA591B4916111DF
:1002F00009C09FB7F8948881209582238883EC9168
:100300002E230BC0623061F49FB7F8948881322F9E
:10031000309583238883EC912E2B2C939FBF06C0AE
:100320008FB7F894E8812E2B28838FBFDF91CF9170
:100330000895CF92DF92EF92FF920F931F93CF9386
:10034000DF936C017A018B01C0E0D0E0CE15DF05B0
:1003500081F0D8016D918D01D601ED91FC91019054
:10036000F081E02DC6010995892B11F02196EECF81
:100370007E01C701DF91CF911F910F91FF90EF9008
:10038000DF90CF900895089580E090E00895FC01FB
:10039000538D448D252F30E0842F90E0821B930BEA
:1003A000541710F0CF96089501970895FC01918D90
:1003B000828D981761F0828DDF01A80FB11D5D96C7
:1003C0008C91928D9F5F9F73928F90E008958FEF35
:1003D0009FEF0895FC01918D828D981731F0828DE9
:1003E000E80FF11D858D90E008958FEF9FEF089540
:1003F000FC01918D228D892F90E0805C9F4F821BA4
:1004000091098F73992708958CE291E00E94F80179
:1004100021E0892B09F420E0822F0895FC01848DCE
:10042000DF01A80FB11DA35ABF4F2C91848D90E01E
:1004300001968F739927848FA689B7892C93A089F9
:10044000B1898C91837080648C93938D848D981383
:1004500006C00288F389E02D80818F7D8083089516
:10046000EF92FF920F931F93CF93DF93EC0181E004
:10047000888F9B8D8C8D981305C0E889F9898081C0
:1004800085FD26C0F62E0B8D10E00F5F1F4F0F73FA
:100490001127E02E8C8DE8120CC00FB607FCFACFA6
:1004A000E889F989808185FFF5CFCE010E940E028F
:1004B000F1CF8B8DFE01E80FF11DE35AFF4FF08263
:1004C0009FB7F8940B8FEA89FB89808180620AC00C
:1004D0009FB7F894EE89FF896083E889F989808164
:1004E0008370806480839FBF81E090E0DF91CF9133
:1004F0001F910F91FF90EF900895CF93DF93EC0140
:10050000888D8823C9F0EA89FB89808185FD05C033
:10051000A889B9898C9186FD0FC00FB607FCF5CF6D
:10052000808185FFF2CFA889B9898C9185FFEDCFB5
:10053000CE010E940E02E7CFDF91CF91089580E0B7
:1005400090E0892B29F00E94040281110C94000094
:100550000895009769F0FC0101900020E9F73197B8
:10056000AF01481B590BBC018CE291E00C9499013E
:1005700080E090E008950E94FE071F920F920FB650
:100580000F9211242F933F938F939F93AF93BF9319
:100590008091280190912901A0912A01B0912B010D
:1005A0003091270123E0230F2D3720F40196A11D60
:1005B000B11D05C026E8230F0296A11DB11D209391
:1005C00027018093280190932901A0932A01B093D9
:1005D0002B018091230190912401A0912501B091DC
:1005E00026010196A11DB11D809323019093240142
:1005F000A0932501B0932601BF91AF919F918F9158
:100600003F912F910F900FBE0F901F9018951F9242
:100610000F920FB60F9211242F933F934F935F9336
:100620006F937F938F939F93AF93BF93EF93FF93BA
:100630008CE291E00E940E02FF91EF91BF91AF9189
:100640009F918F917F916F915F914F913F912F91EA
:100650000F900FBE0F901F9018951F920F920FB61C
:100660000F9211242F938F939F93EF93FF93E09119
:100670003C01F0913D018081E0914201F091430104
:1006800082FD12C09081809145018F5F8F73209110
:100690004601821751F0E0914501F0E0E45DFE4F24
:1006A000958F8093450101C08081FF91EF919F91CB
:1006B0008F912F910F900FBE0F901F9018951F9242
:1006C0000F920FB60F9211242F933F934F935F9386
:1006D0006F937F938F939F93AF93BF93EF93FF930A
:1006E0008091200187FF05C0109285001092840040
:1006F0001BC020912001022E000C330B8091ED01D4
:1007000090E02817390784F480912001082E000C0E
:10071000990BFC01EE0FFF1F8E0F9F1FFC01E7538B
:10072000FE4F808186FD15C0809120018F5F8093F0
:10073000200120912001022E000C330B8091ED014D
:1007400090E028173907C4F4809120018C3064F1BF
:1007500013C080912001082E000C990BFC01EE0FB4
:10076000FF1F8E0F9F1FFC01E753FE4F808160E04B
:100770008F730E941001D8CF8091840090918500E2
:10078000049680349C4918F480E49CE905C080916B
:10079000840090918500049690938900809388004E
:1007A0008FEF809320013BC0209184003091850021
:1007B00080912001082E000C990BFC01EE0FFF1F09
:1007C0008E0F9F1FFC01E753FE4F81819281820FA4
:1007D000931F909389008093880080912001082EB8
:1007E000000C990BFC01EE0FFF1F8E0F9F1FFC01E9
:1007F000E753FE4F808186FF12C080912001082EB2
:10080000000C990BFC01EE0FFF1F8E0F9F1FFC01C8
:10081000E753FE4F808161E08F730E941001FF91CA
:10082000EF91BF91AF919F918F917F916F915F9168
:100830004F913F912F910F900FBE0F901F901895E1
:10084000CF92DF92EF92FF920F931F93E82FF92F31
:1008500005C0015011092109310961F190819623E8
:100860009417B9F305C0015011092109310911F19B
:10087000908196239413F7CFC12CD12CE12CF12C2D
:100880000AC08FEFC81AD80AE80AF80A0C151D0525
:100890002E053F0579F080818623841791F36C2D16
:1008A0007D2D8E2D9F2D1F910F91FF90EF90DF904A
:1008B000CF90089560E070E080E090E01F910F918C
:1008C000FF90EF90DF90CF90089510922F0110923B
:1008D0002E0188EE93E0A0E0B0E080933001909389
:1008E0003101A0933201B093330184E091E0909301
:1008F0002D0180932C0185EC90E090933901809339
:10090000380184EC90E090933B0180933A0180ECB5
:1009100090E090933D0180933C0181EC90E09093B6
:100920003F0180933E0182EC90E0909341018093DF
:10093000400186EC90E09093430180934201109235
:100940004501109246011092470110924801809192
:10095000ED018C30A0F491E0980F9093ED0180931D
:10096000EE0190E0FC01EE0FFF1F8E0F9F1FFC01B8
:10097000E753FE4F88EB9BE09283818308958FEFCE
:100980008093EE010895CF93DF93CDB7DEB7A197A3
:100990000FB6F894DEBF0FBECDBF789484B58260E9
:1009A00084BD84B5816084BD85B5826085BD85B513
:1009B000816085BD80916E00816080936E00109291
:1009C000810080918100826080938100809181000C
:1009D000816080938100809180008160809380009D
:1009E0008091B10084608093B1008091B0008160FB
:1009F0008093B00080917A00846080937A00809127
:100A00007A00826080937A0080917A00816080937E
:100A10007A0080917A00806880937A001092C100F9
:100A200060E089E00E945D0161E08AE00E945D0172
:100A3000E0913C01F0913D0182E08083E09138013A
:100A4000F09139011082E0913A01F0913B018FEC75
:100A5000808310924401E0914001F091410186E0D1
:100A60008083E0913E01F0913F018081806180832D
:100A7000E0913E01F0913F01808188608083E091A8
:100A80003E01F0913F01808180688083E0913E01CA
:100A9000F0913F0180818F7D80838091EE018C30C9
:100AA00008F051C061E082E00E945D018091EE019A
:100AB000E82FF0E09F01220F331FE20FF31FE753EF
:100AC000FE4F9081907C926090831092EF01109283
:100AD000F0016CE00E94EC079CE0899FB0011124BA
:100AE00040E050E09B01240F351FF901EE0FFF1F7E
:100AF0002E0F3F1FF901E753FE4F908196FD16C060
:100B00004F5F5F4F4C30510569F781110FC0109254
:100B1000800082E080938100109285001092840012
:100B2000B19A80916F00826080936F00E091EE0136
:100B3000F0E0CF01880F991FE80FF91FE753FE4F30
:100B40008081806480839AE0492E512C612C712C25
:100B500023E0E22EF12C33E2C32ED12C43EA242EE3
:100B600040E0342E82E191E00E94A902209121010F
:100B7000309122014901330FAA08BB08B7FE20C0FB
:100B80006DE28CE291E00E94300222273327A90116
:100B9000281939094A095B0919A28E010F5D1F4FF7
:100BA000CA01B901A30192010E948A06605DF801A1
:100BB00062938F01211531054105510589F715C053
:100BC000A501940119A28E010F5D1F4FCA01B90141
:100BD000A30192010E948A06605DF80162938F0171
:100BE000211531054105510589F7C8010E94A90267
:100BF0008CE191E00E94A90260E08AE00E9410016D
:100C0000C7010197F1F761E08AE00E941001C60177
:100C10000197F1F760E08AE00E941001F101649110
:100C2000EFE8F0E08491E82FF0E0EE0FFF1FE859C5
:100C3000FF4F8591949100E412E42FE030E0462FBD
:100C40000E942004611571058105910539F0DC01D0
:100C5000CB010196A11DB11DBF7003C080E090E0E3
:100C6000DC01BC01990F880B990B0E94F30626E961
:100C700033E44BE05DE30E94570720E030E040E0C2
:100C80005FE30E9457070E94BB068B01709322010D
:100C9000609321018EE490E00E948C000B301105DE
:100CA00024F484EB90E00E948C000E949F025ACFB3
:100CB000052E97FB1EF400940E946F0657FD07D087
:100CC0000E948A0607FC03D04EF40C946F065095E0
:100CD0004095309521953F4F4F4F5F4F0895909528
:100CE0008095709561957F4F8F4F9F4F08950E941B
:100CF000AC06A59F900DB49F900DA49F800D911DF3
:100D000011240895B7FF0C9477060E947706821B82
:100D1000930B0895A1E21A2EAA1BBB1BFD010DC067
:100D2000AA1FBB1FEE1FFF1FA217B307E407F5079B
:100D300020F0A21BB30BE40BF50B661F771F881F77
:100D4000991F1A9469F760957095809590959B010D
:100D5000AC01BD01CF010895A29FB001B39FC001B6
:100D6000A39F700D811D1124911DB29F700D811DD7
:100D70001124911D08950E94C2066894B1110C942B
:100D8000510708950E94360788F09F5798F0B92FB1
:100D90009927B751B0F0E1F0660F771F881F991FB0
:100DA0001AF0BA95C9F714C0B13091F00E945007FB
:100DB000B1E008950C945007672F782F8827B85F0B
:100DC00039F0B93FCCF3869577956795B395D9F708
:100DD0003EF490958095709561957F4F8F4F9F4F12
:100DE0000895E89409C097FB3EF49095809570951E
:100DF00061957F4F8F4F9F4F9923A9F0F92F96E967
:100E0000BB279395F695879577956795B795F111DB
:100E1000F8CFFAF4BB0F11F460FF1BC06F5F7F4F78
:100E20008F4F9F4F16C0882311F096E911C077238A
:100E300021F09EE8872F762F05C0662371F096E893
:100E4000862F70E060E02AF09A95660F771F881F62
:100E5000DAF7880F9695879597F9089557FD90587A
:100E6000440F551F59F05F3F71F04795880F97FB6E
:100E7000991F61F09F3F79F0879508951216130628
:100E80001406551FF2CF4695F1DF08C01616170657
:100E90001806991FF1CF869571056105089408958C
:100EA000E894BB2766277727CB0197F908950E941E
:100EB0006A070C94DB070E94CD0738F00E94D40724
:100EC00020F0952311F00C94C4070C94CA07112448
:100ED0000C9451070E942E0770F3959FC1F3950F54
:100EE00050E0551F629FF001729FBB27F00DB11DAE
:100EF000639FAA27F00DB11DAA1F649F6627B00D3E
:100F0000A11D661F829F2227B00DA11D621F739F26
:100F1000B00DA11D621F839FA00D611D221F749F34
:100F20003327A00D611D231F849F600D211D822F7B
:100F3000762F6A2F11249F5750409AF0F1F08823A2
:100F40004AF0EE0FFF1FBB1F661F771F881F9150CF
:100F50005040A9F79E3F510580F00C94C4070C94B3
:100F600051075F3FE4F3983ED4F3869577956795F4
:100F7000B795F795E7959F5FC1F7FE2B880F911DF9
:100F80009695879597F9089597F99F6780E870E09F
:100F900060E008959FEF80EC089500240A941616EF
:100FA000170618060906089500240A941216130657
:100FB000140605060895092E0394000C11F48823E5
:100FC00052F0BB0F40F4BF2B11F460FF04C06F5F01
:100FD0007F4F8F4F9F4F0895991B79E004C0991F51
:100FE000961708F0961B881F7A95C9F78095089583
:100FF000EE0FFF1F0590F491E02D099481E090E041
:0A100000F8940C940308F894FFCF55
:10100A000000000030029901C7017D02F801D601F3
:10101A00EA0164697374616E63653A000D0A00003F
:00000001FF
