:100000000C9462000C948A000C948A000C948A0070
:100010000C948A000C948A000C948A000C94600260
:100020000C948A000C948A000C948A000C948A0028
:100030000C948A000C948A000C948A000C948A0018
:100040000C94BE010C948A000C942E020C940802AD
:100050000C948A000C948A000C948A000C948A00F8
:100060000C948A000C948A00000000080002010031
:100070000003040700000000000000000000000072
:10008000240027002A000000000023002600290089
:1000900000000000250028002B00040404040404D0
:1000A0000404020202020202030303030303010227
:1000B00004081020408001020408102001020408F6
:1000C0001020850211241FBECFEFD8E0DEBFCDBFC8
:1000D00011E0A0E0B1E0EAE0FAE002C005900D9284
:1000E000A631B107D9F721E0A6E1B1E001C01D9228
:1000F000A23DB207E1F710E0C2E6D0E004C02197CC
:10010000FE010E94FD04C136D107C9F70E94F20228
:100110000C9403050C9400003FB7F89480911F01E4
:1001200090912001A0912101B091220126B5A89BB8
:1001300005C02F3F19F00196A11DB11D3FBFBA2F79
:10014000A92F982F8827BC01CD01620F711D811D39
:10015000911D42E0660F771F881F991F4A95D1F7BE
:100160000895AF92BF92CF92DF92EF92FF920F93DA
:100170001F93CF93DF936C017B018B01040F151F3D
:10018000EB015E01AE18BF08C017D10759F06991A5
:10019000D601ED91FC910190F081E02DC601099509
:1001A000892B79F7C501DF91CF911F910F91FF90B6
:1001B000EF90DF90CF90BF90AF900895FC01538DEA
:1001C000448D252F30E0842F90E0821B930B541731
:1001D00010F0CF96089501970895FC01918D828DBE
:1001E000981761F0A28DAE0FBF2FB11D5D968C9157
:1001F000928D9F5F9F73928F90E008958FEF9FEF96
:100200000895FC01918D828D981731F0828DE80F51
:10021000F11D858D90E008958FEF9FEF0895FC010B
:10022000918D228D892F90E0805C9F4F821B9109D8
:100230008F739927089583E291E00E940F0121E0D6
:10024000892B09F420E0822F089580E090E0892B2B
:1002500029F00E941B0181110C9400000895FC01FB
:10026000A48DA80FB92FB11DA35ABF4F2C91848D17
:1002700090E001968F739927848FA689B7892C9374
:10028000A089B1898C91837080648C93938D848DC7
:10029000981306C00288F389E02D80818F7D8083CA
:1002A0000895EF92FF920F931F93CF93DF93EC018A
:1002B00081E0888F9B8D8C8D98131AC0E889F9890D
:1002C000808185FF15C09FB7F894EE89FF89608310
:1002D000E889F98980818370806480839FBF81E091
:1002E00090E0DF91CF911F910F91FF90EF900895D3
:1002F000F62E0B8D10E00F5F1F4F0F731127E02EAE
:100300008C8D8E110CC00FB607FCFACFE889F989E5
:10031000808185FFF5CFCE010E942F01F1CFEB8DBB
:10032000EC0FFD2FF11DE35AFF4FF0829FB7F894B9
:100330000B8FEA89FB8980818062CFCFCF93DF93D7
:10034000EC01888D8823B9F0AA89BB89E889F989ED
:100350008C9185FD03C0808186FD0DC00FB607FC22
:10036000F7CF8C9185FFF2CF808185FFEDCFCE0155
:100370000E942F01E9CFDF91CF9108951F920F9234
:100380000FB60F9211242F933F938F939F93AF93A8
:10039000BF9380911B0190911C01A0911D01B09110
:1003A0001E0130911A0123E0230F2D3758F50196D5
:1003B000A11DB11D20931A0180931B0190931C0174
:1003C000A0931D01B0931E0180911F019091200107
:1003D000A0912101B09122010196A11DB11D809330
:1003E0001F0190932001A0932101B0932201BF919E
:1003F000AF919F918F913F912F910F900FBE0F90D2
:100400001F90189526E8230F0296A11DB11DD2CF8B
:100410001F920F920FB60F9211242F933F934F9379
:100420005F936F937F938F939F93AF93BF93EF935C
:10043000FF9383E291E00E942F01FF91EF91BF9122
:10044000AF919F918F917F916F915F914F913F916C
:100450002F910F900FBE0F901F9018951F920F9223
:100460000FB60F9211242F938F939F93EF93FF93C7
:10047000E0913301F09134018081E0913901F091F4
:100480003A0182FD1BC0908180913C018F5F8F7388
:1004900020913D01821741F0E0913C01F0E0ED5DDB
:1004A000FE4F958F80933C01FF91EF919F918F912B
:1004B0002F910F900FBE0F901F9018958081F4CF51
:1004C0001F920F920FB60F9211242F933F934F93C9
:1004D0005F936F937F938F939F93AF93BF93EF93AC
:1004E000FF93F0E0E0E00995FF91EF91BF91AF91AC
:1004F0009F918F917F916F915F914F913F912F913C
:100500000F900FBE0F901F901895E3E2F1E0138259
:10051000128288EE93E0A0E0B0E084839583A68306
:10052000B78384E091E09183808385EC90E09587A8
:10053000848784EC90E09787868780EC90E0918BAD
:10054000808B81EC90E0938B828B82EC90E0958B9A
:10055000848B86EC90E0978B868B118E128E138E97
:10056000148EE8EBF0E0E491A0ECB1E01496EC938B
:100570001497E7EBF0E0E4911596EC93159784EA75
:1005800090E0FC012491E22FF0E0EE0FFF1FE05716
:10059000FF4F2591349117963C932E931697E3EADB
:1005A000F0E0E491F0E0EE0FFF1FEA57FF4F2591D6
:1005B000349119963C932E931897FC018491E82F5F
:1005C000F0E0EE0FFF1FE458FF4F859194911B96CA
:1005D0009C938E931A9781EC9CE21D969C938E932C
:1005E0001C970895CF93DF93CDB7DEB7A1970FB6D1
:1005F000F894DEBF0FBECDBF789484B5826084BD11
:1006000084B5816084BD85B5826085BD85B5816016
:1006100085BD80916E00816080936E001092810094
:10062000809181008260809381008091810081604F
:100630008093810080918000816080938000809110
:10064000B10084608093B1008091B000816080939C
:10065000B00080917A00846080937A0080917A0063
:10066000826080937A0080917A00816080937A0022
:1006700080917A00806880937A001092C100E091A6
:100680003301F091340182E08083E0912F01F091F9
:1006900030011082E0913101F09132018FEC8083C2
:1006A00010923B01E0913701F091380186E08083A0
:1006B000E0913501F0913601808180618083E09185
:1006C0003501F0913601808188608083E0913501A9
:1006D000F0913601808180688083E0913501F0914E
:1006E000360180818F7D808323E2222E312C3AE0F7
:1006F000432E512C612C712CEAE6F0E09491E0EB52
:10070000F0E08491ECE9F0E02491222309F4B2C0F6
:10071000992359F0933009F4C5C008F0B8C091305E
:1007200009F4C6C0923009F4C7C0E22FF0E0EE0F22
:10073000FF1FEA57FF4FA591B4919C91892309F4BB
:1007400099C0E091CA01F091CB0180819091C401E0
:10075000892B8083E091C601F091C701908180913F
:10076000C4018095892380838BE090E00197F1F7A5
:10077000E091C601F091C70180819091C401892B5D
:100780008083C1010197F1F7E091C601F091C701A3
:1007900090818091C401809589238083E091CA0172
:1007A000F091CB0190818091C40180958923808351
:1007B000E091C801F091C90180819091C501892320
:1007C00009F487C090E080E0BC0190E080E029E37C
:1007D00030E040E050E00E94DB0419A28E010F5D82
:1007E0001F4FCA01B901A30192010E94DB04605DA1
:1007F000F80162938F01211531054105510589F7F3
:10080000309761F001900020E9F73197AF01401B6C
:10081000510BB80183E291E00E94B10042E050E048
:1008200062E171E083E291E00E94B1000E948C00DD
:100830004B015C0182E3C82ED12CE12CF12C0E94EB
:100840008C00681979098A099B09683E7340810503
:100850009105A8F3F1E0CF1AD108E108F10828EEDC
:10086000820E23E0921EA11CB11CC114D104E1042C
:10087000F10429F780E090E0892B09F43DCF0E9434
:100880001B01882309F438CF0E94000035CF973030
:10089000B1F09830D1F0943009F047CF90918000BA
:1008A0009F7D03C0909180009F77909380003DCF03
:1008B00094B59F7794BD39CF94B59F7DFBCF909130
:1008C000B0009F779093B00030CF9091B0009F7DA3
:1008D000F9CF0E948C00AB01BC018091CC019091BA
:1008E000CD01B0E0A0E08855994EAF4FBF4F840FC7
:1008F000951FA61FB71F8093CE019093CF01A093A1
:10090000D001B093D101E091C801F091C90180817B
:100910009091C501892381F40E948C000091CE0141
:100920001091CF012091D0013091D1010617170706
:100930002807390740F746CF0E948C002091CC0150
:100940003091CD01620F731F811D911D6093CE0107
:100950007093CF018093D0019093D101E091C801B1
:10096000F091C90180819091C501892381F00E9495
:100970008C000091CE011091CF012091D0013091D7
:10098000D101061717072807390740F71BCF0E9428
:100990008C002091CC013091CD01A9014550510925
:1009A0002091CE013091CF01FA01E21BF30BCF0170
:1009B000860F971F09CFA1E21A2EAA1BBB1BFD01B0
:1009C0000DC0AA1FBB1FEE1FFF1FA217B307E4072E
:1009D000F50720F0A21BB30BE40BF50B661F771F86
:1009E000881F991F1A9469F7609570958095909566
:1009F0009B01AC01BD01CF010895EE0FFF1F0590D3
:0A0A0000F491E02D0994F894FFCF63
:100A0A00000000005101B100DE009E010F01ED005F
:060A1A0001010D0A0000BD
:00000001FF
