:100000000C9458000C9480000C9480000C94800098
:100010000C9480000C9480000C9480000C94800060
:100020000C9480000C9480000C9480000C94800050
:100030000C9480000C9480000C9480000C94800040
:100040000C94AD020C9480000C9480000C94800001
:100050000C9480000C9480000C9480000C94800020
:100060000C94F7020C94800000000000250028008A
:100070002B00040404040404040402020202020229
:10008000030303030303010204081020408001025C
:1000900004081020010204081020000000080002DB
:1000A0000100000304070000000000000000250418
:1000B00011241FBECFEFD8E0DEBFCDBF11E0A0E01E
:1000C000B1E0ECEAFBE002C005900D92A433B10769
:1000D000D9F722E0A4E3B1E001C01D92A930B20734
:1000E000E1F710E0C8E5D0E004C02197FE010E94CE
:1000F000C905C735D107C9F70E9445040C94D4053A
:100100000C94000090E0FC01E656FF4F2491FC01A6
:10011000EA57FF4F3491FC01EE58FF4FE491EE2374
:10012000B1F1222339F1233091F038F42130A9F0D4
:10013000223001F584B58F7D12C0273091F0283030
:10014000A1F02430B9F4809180008F7D03C08091AC
:1001500080008F77809380000DC084B58F7784BD39
:1001600009C08091B0008F7703C08091B0008F7D6F
:100170008093B000F0E0EE0FFF1FE859FF4FA5910C
:10018000B4918FB7F894EC91E32BEC938FBF089563
:100190003FB7F8948091ED019091EE01A091EF01AD
:1001A000B091F00126B5A89B05C02F3F19F001962C
:1001B000A11DB11D3FBFBA2FA92F982F8827820FED
:1001C000911DA11DB11DBC01CD0142E0660F771F3D
:1001D000881F991F4A95D1F708958F929F92AF92E9
:1001E000BF92CF92DF92EF92FF926B017C010E944F
:1001F000C8004B015C01C114D104E104F104F1F029
:100200000E94C800DC01CB0188199909AA09BB0921
:10021000883E9340A105B10570F321E0C21AD108D0
:10022000E108F10888EE880E83E0981EA11CB11C3D
:10023000C114D104E104F10419F7DDCFFF90EF9070
:10024000DF90CF90BF90AF909F908F900895CF9206
:10025000DF92EF92FF920F931F93CF93DF936C0186
:100260007A018B01C0E0D0E0CE15DF0581F0D80126
:100270006D918D01D601ED91FC910190F081E02D01
:10028000C6010995892B11F02196EECF7E01C70199
:10029000DF91CF911F910F91FF90EF90DF90CF9062
:1002A00008950895089585ED8093BC008091BC0069
:1002B00084FDFCCF1092E301089540919601262F12
:1002C00030E0240F311D21323105DCF42091E301AF
:1002D0002430C9F4FC0180E090E0861758F4309196
:1002E00096012191DC01AA58BE4FA30FB11D2C939A
:1002F0000196F3CF80919601680F6093960180E09C
:10030000089581E0089582E008950895E091E7015D
:100310008091E601E81730F4F0E0EA5AFE4F808160
:1003200090E008958FEF9FEF08959091E7018091FD
:10033000E601981750F4E92FF0E0EA5AFE4F2081C9
:1003400030E09F5F9093E70102C02FEF3FEFC901BC
:1003500008958091E60190E02091E701821B9109C8
:100360000895CF92DF92EF92FF920F931F93CF9356
:10037000DF937C01CB018A0120915501222389F072
:10038000EB016B01C40ED51ECC15DD0569F069913A
:10039000D701ED91FC910190F081E02DC701099505
:1003A000F3CF642F0E945D01C801DF91CF911F91AF
:1003B0000F91FF90EF90DF90CF900895CF93DF9350
:1003C0001F92CDB7DEB76983209155012223D1F06A
:1003D0002091E401203240F021E030E0FC01338341
:1003E000228380E090E015C08091E501E82FF0E0E5
:1003F000EB5CFE4F998190838F5F8093E501809342
:10040000E40105C061E0CE0101960E945D0181E03A
:1004100090E00F90DF91CF910895CF93FC01C481BC
:1004200021E020935501C09334011092E501109210
:10043000E4018385682B81EF91E00E94DE019091B9
:10044000E401913208F045C08091E3018111FCCFB5
:1004500082E08093E30181E08093E2018FEF80935B
:10046000B9011092DB019093DA01A5E3B1E0EAEB68
:10047000F1E080E0981721F02D9121938F5FFACF62
:100480001092DC018091DC01CC0FC82BC093DC0101
:100490008091E101813061F41092E1018091DC01F1
:1004A0008093BB008091BC0083FDF8CF85EC01C038
:1004B00085EE8093BC008091E3018230E1F380916E
:1004C000B9018F3F31F08091B901803211F08091F4
:1004D000B9011092E5011092E40110925501CF91FB
:1004E00008950F931F93CF938C01C62F0E940D0286
:1004F0006C2F6460C8010E940D026C2F6B7FC801D5
:100500000E940D0283EC90E00197F1F7CF911F91CB
:100510000F9108950F931F93CF93DF938C01C62FF4
:10052000D42F607F642B0E94710280E1C89FB001CC
:1005300011246D2BC801DF91CF911F910F910C9465
:10054000710241E00E948A0281E090E008950895DE
:1005500080E090E008950E94CF051F920F920FB6A1
:100560000F9211242F933F938F939F93AF93BF9339
:100570008091E9019091EA01A091EB01B091EC0129
:100580003091E80123E0230F2D3720F40196A11DBF
:10059000B11D05C026E8230F0296A11DB11D2093B1
:1005A000E8018093E9019093EA01A093EB01B093F5
:1005B000EC018091ED019091EE01A091EF01B091DD
:1005C000F0010196A11DB11D8093ED019093EE0104
:1005D000A093EF01B093F001BF91AF919F918F91E4
:1005E0003F912F910F900FBE0F901F9018951F9263
:1005F0000F920FB60F9211242F933F934F935F9357
:100600006F937F938F939F93AF93BF93EF93FF93DA
:100610008091B900887F803609F49CC068F58832E3
:1006200009F45BC090F4803109F454C038F4882395
:1006300009F4F6C0883009F44DC0F6C0883109F4D9
:100640004CC0803209F45DC0EFC0803409F468C04A
:1006500048F4803309F455C0883309F0E5C080932D
:10066000B901D8C0803509F44FC0883509F45DC0A0
:10067000883409F0D9C0D6C0883909F4C7C0A8F4B5
:10068000883709F467C038F4883609F463C08037C6
:1006900009F460C0C9C0883809F4B8C0803909F4C9
:1006A0005FC0803809F0C0C05BC0803B09F486C0E1
:1006B00038F4803A09F466C0883A09F47FC0B4C0BF
:1006C000803C09F4A7C0883C09F4A4C0883B09F425
:1006D0008AC0AAC08091DC0110C09091DB0180919A
:1006E000DA01981770F5E091DB0181E08E0F8093BD
:1006F000DB01F0E0E654FE4F80818093BB0085EC87
:1007000086C08093B9018EC0E091DB0181E08E0F3D
:100710008093DB018091BB00F0E0E654FE4F8083C4
:100720009091DB018091DA016EC0E091DB0181E004
:100730008E0F8093DB018091BB00F0E0E654FE4F0A
:1007400080838091E20181116DC081E08093E1019D
:1007500084EA61C083E08093E3011092B801CFCFB7
:100760008091B801803208F051C0E091B80181E079
:100770008E0F8093B8018091BB00F0E0E856FE4FE9
:100780008083BDCF85EC8093BC001092E301809103
:10079000B801803230F4E091B801F0E0E856FE4F45
:1007A00010826091B80170E0E091DD01F091DE010E
:1007B00088E991E009951092B80136C084E08093F1
:1007C000E3011092970110929601E091DF01F09100
:1007D000E001099580919601811105C081E0809327
:1007E000960110927601E091970181E08E0F80933F
:1007F0009701F0E0EA58FE4F80818093BB00909112
:10080000970180919601981708F479CF85E8809335
:10081000BC000AC085EC8093BC001092E30104C0C8
:100820001092B9010E945301FF91EF91BF91AF91D6
:100830009F918F917F916F915F914F913F912F91F8
:100840000F900FBE0F901F901895E1EFF1E013820B
:10085000128288EE93E0A0E0B0E084839583A683C3
:10086000B7838CE091E091838083EDEFF1E0138218
:1008700012828EE191E09183808387E2848380E11C
:10088000818782E0828713860895CF93DF93CDB767
:10089000DEB7A1970FB6F894DEBF0FBECDBF789438
:1008A00084B5826084BD84B5816084BD85B5826075
:1008B00085BD85B5816085BD80916E008160809326
:1008C0006E0010928100809181008260809381008F
:1008D000809181008160809381008091800081609F
:1008E000809380008091B10084608093B1008091FA
:1008F000B00081608093B00080917A008460809322
:100900007A0080917A00826080937A0080917A00E8
:10091000816080937A0080917A00806880937A0069
:100920001092C1001092E7011092E6011092E501C9
:100930001092E4011092E30181E08093E2011092B1
:10094000E10182E10E94820083E10E9482008091A5
:10095000B9008E7F8093B9008091B9008D7F80931C
:10096000B90088E48093B80085E48093BC0081E5F9
:1009700091E09093E0018093DF0182E591E0909314
:10098000DE018093DD011092020280910702823025
:1009900018F098E0909302028093050262E370E001
:1009A00080E090E00E94ED00609108028DEF91E000
:1009B0000E940D0268EE73E080E090E00E94ED007E
:1009C00060E38DEF91E00E9471020BE416E4C80130
:1009D0000197F1F760E38DEF91E00E947102C80189
:1009E0000197F1F760E38DEF91E00E94710283E5DA
:1009F00092E00197F1F760E28DEF91E00E947102C1
:100A000060910202606240E08DEF91E00E948A02F4
:100A100084E08093030240E06CE08DEF91E00E945F
:100A20008A0240E061E08DEF91E00E948A020BE3D0
:100A30001FE1C8010197F1F782E08093040240E0D2
:100A400066E08DEF91E00E948A0240E062E08DEF67
:100A500091E00E948A02C8010197F1F788E0809333
:100A6000080260E08DEF91E00E940D024DE050E041
:100A700066E271E08DEF91E00E94270188EEC82EBA
:100A800083E0D82EE12CF12C9AE0492E512C612CD8
:100A9000712C20E0A22E20E0B22E88E0E0E0F1E010
:100AA000DE01119601900D928A95E1F78091050281
:100AB000811102C08FEF01C081E0FE013196E80F85
:100AC000F11DE80FF11D6081606840E08DEF91E05D
:100AD0000E948A022FB7F8946091E9017091EA01AF
:100AE0008091EB019091EC012FBFA70196010E942C
:100AF000A70519A28E010F5D1F4FCA01B901A301FD
:100B000092010E94A705605DF80162938F01211593
:100B100031054105510589F7309761F001900020BA
:100B2000E9F73197AF01401B510BB8018DEF91E010
:100B30000E94270164E670E080E090E00E94ED00F2
:100B4000A114B10409F4A9CF0E940000A6CFA1E22C
:100B50001A2EAA1BBB1BFD010DC0AA1FBB1FEE1F37
:100B6000FF1FA217B307E407F50720F0A21BB30B82
:100B7000E40BF50B661F771F881F991F1A9469F7FE
:100B800060957095809590959B01AC01BD01CF015A
:100B90000895EE0FFF1F0590F491E02D099481E078
:0C0BA00090E0F8940C94D405F894FFCF7A
:100BAC00000040001400540000000000DE01B10100
:100BBC00A8028501A9019501860100000000A1028F
:100BCC002701A802A70268656C6C6F2C20776F72E6
:040BDC006C64210024
:00000001FF
